:020000040800F2
:10000000D41C002095010008A5250008A52500089E
:10001000A5250008A5250008A5250008A525000898
:10002000A5250008A5250008A5250008A525000888
:10003000A5250008A5250008A5250008A525000878
:10004000A5250008A5250008A5250008A525000868
:10005000A5250008A5250008A5250008A525000858
:10006000A5250008A5250008A5250008A525000848
:10007000A5250008A5250008A5250008A525000838
:10008000A5250008A5250008A5250008A525000828
:10009000A5250008A5250008A5250008A525000818
:1000A000A5250008A5250008A5250008A525000808
:1000B000A5250008A5250008A5250008A5250008F8
:1000C000A5250008A5250008A5250008A5250008E8
:1000D000A5250008A5250008A5250008A5250008D8
:1000E000A5250008A5250008A5250008A5250008C8
:1000F000A5250008A5250008A5250008A5250008B8
:10010000A5250008A5250008A5250008A5250008A7
:10011000A5250008A5250008A5250008A525000897
:10012000A5250008A5250008A5250008A525000887
:10013000A5250008A5250008A5250008A525000877
:10014000A5250008A5250008A5250008A525000867
:10015000A5250008A5250008A5250008A525000857
:10016000A5250008A5250008A5250008A525000847
:10017000A5250008A5250008A5250008A525000837
:10018000A5250008A5250008A5250008A525000827
:10019000A525000880B582B000AF4FF080533B60CA
:1001A00004E03B681A1D3A6000221A603B68164A58
:1001B0009342F6D300F062FC00F01EFA00F030F833
:1001C000124B3B6004E03B681A1D3A6000221A6043
:1001D0003B680F4A9342F6D30E4B7B600E4B3B605D
:1001E00007E07A68131D7B603B68191D396012684F
:1001F0001A603B68094A9342F3D300F0D5FF02F03E
:1002000027FA02F059FA00BF00400010B8000020A1
:10021000D8180020C492020800000020B40000207A
:1002200080B400AF00BFBD4680BC704780B58EB0C3
:1002300000AF78607B681B0903F00F033B623B6AE9
:10024000072B02D96FF015034AE1864A3B6A52F840
:100250002330FB617B6803F00F03BB617B6803F411
:100260004023B3F5402F1DD0B3F5402F05D8B3F58B
:10027000802F05D0B3F5002F11D000237B6214E04E
:100280007B6803F48073002B14BF01230023DBB2CF
:100290001946786800F039F901237B6205E00223F2
:1002A0007B6202E003237B6200BFEFF3108372B630
:1002B0007B817B89FB82FB691B687B63BB695B007D
:1002C000032202FA03F3DB431A467B6B13407B6382
:1002D000BB695B007A6A02FA03F37A6B13437B63B0
:1002E000FB697A6B1A6000233B637B6A032B0FD098
:1002F0007B6803F44033B3F5803F03D0B3F5003F90
:1003000003D006E001233B6303E002233B6300E0EC
:1003100000BFFB690C331B687B63BB695B00032276
:1003200002FA03F3DB431A467B6B13407B63BB6922
:100330005B003A6B02FA03F37A6B13437B63FB694E
:100340000C331A467B6B13607B6A022B05D17B68EA
:100350001B0B03F00F033B6301E000233B63BB690E
:10036000072B04D82023FB62BB69BB6204E0242373
:10037000FB62BB69083BBB62FA69FB6A13441B68FA
:100380007B63BB6A9B000F2202FA03F3DB431A462E
:100390007B6B13407B63BB6A9B003A6B02FA03F3EF
:1003A0007A6B13437B63FA69FB6A13441A467B6BCF
:1003B00013607B6A012B02D07B6A022B1BD17B6806
:1003C00003F44063B3F5406F11D0B3F5406F05D827
:1003D000B3F5806F05D0B3F5006F05D000233B6304
:1003E00008E001233B6305E002233B6302E00323B3
:1003F0003B6300BF01E000233B63FB6908331B68DC
:100400007B63BB695B00032202FA03F3DB431A46FA
:100410007B6B13407B63BB695B003A6B02FA03F3AF
:100420007A6B13437B63FB6908331A467B6B13605B
:10043000FB6904331B687B630122BB6902FA03F387
:100440003B637B6A012B02D07B6A022B0CD17B6859
:1004500003F40073002B07D07A6B3B6B13437B6371
:1004600007E000BFEC0D02083B6BDB437A6B1340E7
:100470007B63FB6904331A467B6B13607B6A012B39
:1004800025D07B6803F48073002B20D0BB6903F078
:100490000C02154B13443B613B691B687B63BB69D2
:1004A0009B0003F00C03FB600722FB6802FA03F3D6
:1004B000DB431A467B6B13407B633A6AFB6802FAA4
:1004C00003F37A6B13437B633B697A6B1A60FB8A95
:1004D0003B813B8913F0010F00D162B600BF0023BE
:1004E00018463837BD4680BD0800014080B582B04F
:1004F00000AF78607B68DBB27B607868FFF796FEC0
:10050000034618460837BD4680BD80B487B000AFAB
:1005100078600B46FB707B681B0903F00F033B619F
:100520003B69072B1CD8114A3B6952F82330FB600A
:100530007B6803F00F03BB60FB78002B05D0012222
:10054000BB6802FA03F37B6105E0BB68103301224C
:1005500002FA03F37B61FB6818331A467B69136068
:1005600000BF1C37BD4680BC704700BFEC0D0208C1
:1005700080B487B000AF78607B681B0903F00F037D
:100580007B617B69072B16D80E4A7B6952F82330B2
:100590003B617B6803F00F03FB603B6910331B6812
:1005A0000121FA6801FA02F21340002B14BF012363
:1005B0000023DBB200E0002318461C37BD4680BC98
:1005C000704700BFEC0D020880B483B000AF034653
:1005D000FB7100BF064B1B6803F08003002BF9D0B2
:1005E000044AFB79136000BF0C37BD4680BC7047DE
:1005F0001C4400402844004080B582B000AF4FF456
:10060000003200211C4801F019FD1C48FFF70EFEC6
:100610001B48FFF70BFE1B4B1B687B607B6803F0DE
:100620008F037B60174A7B681360174B1B687B60E6
:100630007A68164B13407B60134A7B681360144B37
:100640001B687B607A68134B13407B60104A7B68A1
:100650001360114B40F2B6221A600B4B1B687B6093
:100660007B6843F00D037B60074A7B68136000BF23
:100670000837BD4680BD00BF581002400270080018
:100680000F3008000444004000440040010000E036
:1006900008440040000081FF0C44004080B483B057
:1006A00000AF174B1B687B607B6843F480737B60F3
:1006B000134A7B681360134B00221A60104B1B68AF
:1006C0007B607B6823F0012323F410237B600C4ABA
:1006D0007B6813600C4B4FF480521A60084B1B6808
:1006E0007B607B6823F480237B60054A7B68136012
:1006F000064B00221A6000BF0C37BD4680BC704715
:1007000000100240081002400C1002401810024075
:1007100080B483B000AF094B1B687B607B6843F0FB
:1007200001037B607B6843F002037B60034A7B68C4
:10073000136000BF0C37BD4680BC704748100240B4
:1007400080B483B000AF094B1B687B607B6843F0CB
:100750009F037B607B6843F480237B60034A7B6854
:10076000136000BF0C37BD4680BC70474C10024080
:1007700080B483B000AF054B1B687B60034A7B6885
:10078000136000BF0C37BD4680BC7047501002405C
:1007900080B483B000AF0C4B1B687B607B6843F474
:1007A00000337B607B6843F080537B60064A7B6844
:1007B0001360064B1B687B60044A7B68136000BFB4
:1007C0000C37BD4680BC7047581002405C10024098
:1007D00080B483B000AF094B1B687B607B6843F03B
:1007E00001037B607B6843F080037B60034A7B6886
:1007F000136000BF0C37BD4680BC704760100240DC
:1008000080B483B000AF074B1B687B607B6843F00C
:1008100080637B60034A7B68136000BF0C37BD4672
:1008200080BC70478810024080B582B000AF524B48
:100830001B687B607B6843F480737B604E4A7B68F7
:1008400013604E4B3B6008E04B4B1B6803F4806326
:10085000002B06D13B68013B3B603B68002BF3DC7F
:1008600000E000BF3B68002B40F38180444B1B68D5
:100870007B607B6823F0F0037B60414A7B681360F8
:100880003F4B1B687B607B6823F460537B603C4A72
:100890007B6813603A4B1B687B607B6823F4E063E2
:1008A0007B60374A7B681360364B1B687B604FF474
:1008B00020637B607B6843F480137B607B6843F03C
:1008C00080737B607B6843F002037B602D4A7B680A
:1008D0001360294B1B687B607B6843F080737B60EF
:1008E000254A7B68136000BF234B1B6803F000732D
:1008F000002BF9D0244B1B687B60244B7B607B680A
:1009000043F480137B60204A7B6813601A4B1B689A
:100910007B607B6843F080637B60174A7B68136071
:1009200000BF154B1B6803F00063002BF9D040F2A9
:1009300004737B60164A7B681360114B1B687B60F5
:100940007B6823F003037B607B6843F003037B60D9
:100950000B4A7B68136000BF094B1B6803F00C0354
:100960000C2BF9D1012000F00FFD00F0B7FC00BF07
:100970000837BD4680BD00BF00100240ECF70C00F8
:10098000081002400C10024010100240000C200021
:100990000020024080B500AFFFF732FFFFF7B8FE3E
:1009A000FFF7CEFEFFF7E4FEFFF7F2FEFFF710FFC2
:1009B00000BF80BD80B5A2B000AF01F02FF80346A4
:1009C00087F8833097F88330002B4FD10023C7F886
:1009D000843012E0D7F884309A00264B13441A680A
:1009E000D7F884309B0007F188010B4443F8882C2A
:1009F000D7F884300133C7F88430D7F884301F2B00
:100A0000E8DD012000F0F4FC4FF4803200211A48A8
:100A100001F014FB00224FF48031174801F00EFB67
:100A20000023C7F884301AE0D7F884309B00002BED
:100A30000FD0D7F884309A000E4B13441A46D7F8DB
:100A400084309B0007F188010B4453F8883C136005
:100A500000E000BFD7F884300133C7F88430D7F8FE
:100A600084301F2BE0DD002000F0C2FC00BF88377F
:100A7000BD4680BD502800409010024080B500AFB8
:100A8000FFF70CFEFFF796FFFFF7CEFEFFF782FFA2
:100A900000BF80BD80B483B000AF786039607B68F0
:100AA0009A6C3B6813441B6818460C37BD4680BCE3
:100AB000704780B485B000AFF860B9607A60FB68B9
:100AC0009A6CBB6813441A467B68136000BF1437E6
:100AD000BD4680BC704780B584B000AF78600B46DF
:100AE0007B807B687A889A8600217868FFF7D2FF3E
:100AF000F860FB6823F4D073FB607B8803F4D07349
:100B0000FA681343FB60FA6800217868FFF7D1FFA9
:100B100008217868FFF7BEFFF860FB6823F0010347
:100B2000FB607B8803F00103FA681343FB60FA68FB
:100B300008217868FFF7BDFF00BF1037BD4680BDB4
:100B400080B584B000AF78600B467B80EFF31083F4
:100B500072B67B817B89FB817B8819467868FFF7B9
:100B6000BAFFFB89BB81BB8913F0010F00D162B6CC
:100B700000BF00BF1037BD4680BD80B586B000AF56
:100B800078603960EFF3108372B67B817B89FB82DA
:100B90003B68002B17D000217868FFF77BFF386196
:100BA00008217868FFF776FFF8603B699BB203F491
:100BB000D0739AB2FB689BB203F001039BB213435C
:100BC0009AB23B681A8000217868FFF784FFFB8A9D
:100BD0003B813B8913F0010F00D162B600BF00BF1B
:100BE0001837BD4680BD80B588B000AF78607B689F
:100BF0009B6A3B613B695B6C5A003B69DB6B5B0842
:100C00001A443B69DB6BB2FBF3F3FB6000213869EC
:100C1000FFF740FFB8610C213869FFF73BFF7861AF
:100C20007B691B0C1B047B61FB68642B0AD9FB6886
:100C300001335B087A6913437B61BB6923F400438A
:100C4000BB610FE0FA684FF6F0731340FA68520880
:100C500002F0070213437A6913437B61BB6943F4D3
:100C60000043BB61BA6900213869FFF722FF7A6946
:100C70000C213869FFF71DFF00213869FFF70AFFD3
:100C8000F861FB6923F0805323F4B053FB613B69A7
:100C900093F83930012B04D1FB6943F4C063FB6145
:100CA00008E03B6993F83930022B03D1FB6943F428
:100CB0008063FB613B6993F83A30092B09D03B69AB
:100CC00093F83A30082B09D13B6993F83930002B5F
:100CD00004D0FB6943F48053FB610DE03B6993F85A
:100CE0003A30072B08D13B6993F83930002B03D1F8
:100CF000FB6943F08053FB61FA6900213869FFF713
:100D0000D8FE04213869FFF7C5FEF861FB6923F4BA
:100D10004053FB613B6993F83B30002B03D0FB69E8
:100D200043F40053FB61FA6904213869FFF7C1FEFF
:100D300008213869FFF7AEFEF861FB6923F44073C0
:100D4000FB61FA6908213869FFF7B3FE00BF20375D
:100D5000BD4680BD80B586B000AF78600B46FB70A5
:100D60007B689B6A7B617B699B6C0E4A934214D1C2
:100D70004FF400333B610C4BFB6000BFFB78002B52
:100D800005D03A690021F86801F058F906E0002220
:100D90003969F86801F052F900E000BF1837BD4624
:100DA00080BD00BF004400405810024080B584B0B0
:100DB00000AF78607B689B6ABB6001217868FFF7B1
:100DC000C9FFBB68DB6C1846FFF730FABB681B6DC8
:100DD0001846FFF72BFA0421B868FFF75BFEF860AE
:100DE000FB6823F47D53FB60BB6893F83B30002B1A
:100DF00003D0FB6843F40053FB60FA680421B86831
:100E0000FFF757FE0021B868FFF744FEF860FA6864
:100E10001A4B1340FB60FA680021B868FFF749FEDF
:100E20000821B868FFF736FEF860FB6823F4E0633A
:100E300023F00103FB60FA680821B868FFF739FE68
:100E40007868FFF7D0FE0021B868FFF723FEF8604E
:100E5000FB6843F00D03FB60FA680021B868FFF7F8
:100E600028FEBB6800229A86BB68012283F83820DE
:100E7000002318461037BD4680BD00BF03BEFFF3F8
:100E800080B584B000AF78607B689B6AFB60FB68CC
:100E9000002283F838200021F868FFF76EFE002159
:100EA0007868FFF757FF0021F868FFF7F3FDB86097
:100EB000BB6823F00D03BB60BA680021F868FFF738
:100EC000F8FDFB68DB6C1846FFF710FBFB681B6D39
:100ED0001846FFF70BFB00BF1037BD4680BD80B53D
:100EE00084B000AF78607B689B6AFB60FB6893F816
:100EF0004030FA680949184601F080FDB860BB68C7
:100F0000002B05D1FB6893F84030184601F0EDF94D
:100F1000BB6818461037BD4680BD00BF530F0008A0
:100F200080B584B000AF78607B689B6AFB60FB682B
:100F300093F84030184601F0B1F9FB6893F840305F
:100F400000220021184601F059FD00BF1037BD46B0
:100F500080BD80B588B000AFF860B9607A607B680A
:100F60007B610123FB760023FB613CE00023FB76E1
:100F70001C217869FFF78EFD03469AB27B69DA86F9
:100F80007B69DB8E03F02003002B0CD07B699B8EEA
:100F900003F02003002B06D07B69184605F0CFF83C
:100FA0000123FB760AE07B69DB8E03F00E03002B46
:100FB00004D00E2220217869FFF77BFD7B69DB8E50
:100FC00003F08003002B0BD07B699B8E03F0800322
:100FD000002B05D07B69184605F060F80123FB76ED
:100FE000FB690133FB61FB69FF2B02DCFB7E002BFD
:100FF000BCD1002318462037BD4680BD80B487B0E1
:1010000000AFF860B9607A6000237B616FF018036D
:101010007B6100BF7B6918461C37BD4680BC7047AA
:1010200080B584B000AF786039607B689B6AFB60F4
:101030002421F868FFF72EFDB860FB68DB8E1B04E7
:101040001A46BB681A433B681A60FB680022DA86BE
:10105000BB68DBB218461037BD4680BD80B586B090
:1010600000AF78600B46FB707B689B6A3B61EFF3D7
:10107000108372B6BB81BB89FB813B699B8EFB826F
:10108000FB78002B04D0FB8A43F02003FB8205E0B1
:10109000FB8A23F4907323F00103FB82FB8A194639
:1010A0003869FFF74DFDFB897B817B8913F0010FC8
:1010B00000D162B600BF00BF1837BD4680BD80B505
:1010C00084B000AF78607B689B6AFB601C21F86885
:1010D000FFF7E0FC034603F02003002B14BF0123BD
:1010E0000023DBB218461037BD4680BD80B584B002
:1010F00000AF786039607B689B6AFB603B681A468A
:101100002821F868FFF7D5FC00BF1037BD4680BD29
:1011100080B586B000AF78600B46FB707B689B6A39
:101120007B61EFF3108372B6FB81FB897B82FB78D6
:10113000002B0DD07B699B8E43F080033B823B8A62
:1011400019467869FFF7FCFC786804F0A7FF08E00F
:101150007B699B8E23F080039BB219467869FFF769
:10116000EFFC7B8ABB81BB8913F0010F00D162B613
:1011700000BF00BF1837BD4680BD80B584B000AF4A
:1011800078607B689B6AFB601C21F868FFF782FC33
:10119000034603F08003002B14BF01230023DBB2BE
:1011A00018461037BD4680BD80B582B000AF002321
:1011B0007B6010E00D4A7B6852F82330002B07D08B
:1011C0000A4A7B6852F8233000211846FFF7D5FC05
:1011D0007B6801337B607B68012BEBD9044B18469D
:1011E000FFF7E4FD00BF0837BD4680BD3C0E020896
:1011F0000000002080B586B000AF00233B61204B8B
:101200001946204804F0A8FE1D4B19461E4804F05C
:10121000A3FE01233B613B461C49184605F04EFCEA
:1012200000237B6124E01A4A7B6952F82330002BAB
:1012300018D0174A7B6952F82330DB78002B13D182
:101240003B695A1C3A61DBB23033DBB27B72104A25
:101250007B6952F823301A463B461146184604F083
:101260007BFE02E000BF00E000BF7B6901337B61D1
:101270007B69012BD7D900BF00BF1837BD4680BDA1
:1012800000000020440E0208540E0208600E0208FE
:101290003C0E020880B584B000AF78600E4BFB6056
:1012A00007F10A031946F868FFF767FC7B680A2B09
:1012B00002D10D20FFF788F97B68DBB21846FFF7F3
:1012C00083F97B891946F868FFF73AFC7B68184672
:1012D0001037BD4680BD00BF0000002080B582B041
:1012E00000AF154B1B687B607B6803F00303032B87
:1012F0001ED0012000F07CF80346FB707B6843F0B1
:1013000001037B607B6823F018037B600A4A7B68DB
:10131000136001E001F018F8074B1B687B607B68E5
:1013200003F00203002BF5D0FB78184600F060F8BC
:1013300000BF0837BD4680BD9010024080B483B026
:1013400000AF0346FB71FB7903F1804303F5E043F3
:101350001B689BB218460C37BD4680BC704780B4F2
:1013600083B000AF03460A46FB711346BB80FB798E
:1013700003F1804303F5E0431A46BB88136000BFC6
:101380000C37BD4680BC704780B485B000AF0346C3
:10139000FB71164B1B68FB60FB6803F08053002B4E
:1013A00014BF01230023DBB2FB72FB7A002B0AD0AF
:1013B000FB79002B07D1FB6823F08053FB600B4ABD
:1013C000FB6813600CE0FB7A002B09D1FB79002B42
:1013D00006D0FB6843F08053FB60044AFB6813604F
:1013E000FB7A18461437BD4680BC7047581002403F
:1013F00080B584B000AF0346FB710020FFF79EFF6D
:101400000346FB81FB8903F48073002B14BF012387
:101410000023DBB27B737B7B002B0CD0FB79002B92
:1014200009D1FB8923F48073FB81FB8919460020D5
:10143000FFF795FF11E07B7B002B0ED1FB79002B92
:101440000BD0FB8943F48073FB81FB891946002094
:10145000FFF785FF042000F019FE7B7B184610374C
:10146000BD4680BD80B584B000AF0346FB71264BFE
:101470001B68FB60FB6803F08053002B14BF012343
:101480000023DBB2FB72FB7A002B02D10120FFF7B5
:101490007BFF0420FFF752FF0346FB60FB6803F469
:1014A0008063002B14BF01230023DBB2BB72BB7A25
:1014B000002B0DD0FB79002B0AD1FB6823F480634D
:1014C000FB60FB689BB219460420FFF748FF0FE062
:1014D000BB7A002B0CD1FB79002B09D0FB6843F4BD
:1014E0008063FB60FB689BB219460420FFF737FF5F
:1014F000FB7A002B02D10020FFF746FFBB7A18468B
:101500001037BD4680BD00BF5810024080B485B082
:1015100000AF78607B68012B02D07B68022B16D16C
:101520000D4B1B68FB60FB6823F4C063FB607B68AA
:10153000012B04D1FB6843F40073FB6003E0FB68FC
:1015400043F48063FB60044AFB68136000E000BF63
:101550001437BD4680BC70470070004080B500AFB6
:101560000120FFF745FF044BCA221A60024B5322A9
:101570001A6000BF80BD00BF2428004080B500AFC6
:10158000034BFF221A600020FFF732FF00BF80BD2F
:101590002428004080B485B000AF144B1B68BB60AA
:1015A000BB6823F02003BB60104ABB6813606FF078
:1015B0007303FB6000237B600DE00C4B1B68BB607A
:1015C000BB6803F02003002B02D00023FB6006E081
:1015D0007B6801337B607B68B3F5003FEDD3FB682C
:1015E00018461437BD4680BC704700BF0C28004029
:1015F00080B485B000AF154B1B68BB600023FB6057
:10160000BB6803F04003002B1AD1104B80221A60F4
:101610006FF07303FB6000237B600DE00B4B1B68D6
:10162000BB60BB6803F04003002B02D00023FB60CB
:1016300006E07B6801337B607B68B3F5803FEDD3C8
:10164000FB6818461437BD4680BC70470C28004024
:1016500080B483B000AF074B1B687B607B6823F0CE
:1016600080037B60034A7B68136000BF0C37BD4674
:1016700080BC70470C28004080B485B000AF786013
:101680000023FB6005E0FB680133FB607B680A3BDD
:101690007B607B68092BF6DCFB681A017B681343CF
:1016A00018461437BD4680BC704780B485B000AF83
:1016B00078607B681A0913469B0013445B00FB604B
:1016C0007B6803F00F02FB68134418461437BD46CD
:1016D00080BC704780B483B000AF094B1B687B604F
:1016E0007B6823F440737B60054A7B681360054B7D
:1016F0004FF480221A6000BF0C37BD4680BC704793
:101700000C2800401404014080B58AB000AFF86096
:10171000B9607A6000237B620120FFF769FE344BD9
:101720001B683B623B6A03F48053002B27D0314B8C
:101730001B68FB61FB6903F48073002B1FD02E4BE9
:10174000BB61BB691B68002B0FD0BB691B687B6149
:10175000BB695B683B61BB6900221A60BB69002200
:101760005A607B69002138699847224B1B68FB61EE
:10177000FB6923F48073FB611E4AFB6913601C4BF9
:101780001B683B623B6A03F40053002B27D0194BC4
:101790001B68FB61FB6903F40073002B1FD0174B20
:1017A000BB61BB691B68002B0FD0BB691B687B61E9
:1017B000BB695B683B61BB6900221A60BB690022A0
:1017C0005A607B690121386998470A4B1B68FB61A5
:1017D000FB6923F40073FB61064AFB691360002078
:1017E000FFF706FE7B6A18462837BD4680BD00BF5E
:1017F000082800400C280040B8020020C002002049
:1018000080B485B000AF6FF07303FB6000237B6092
:101810000DE00C4B1B68BB60BB6803F00103002BA1
:1018200002D00023FB6006E07B6801337B607B68AD
:10183000B3F5803FEDD3FB6818461437BD4680BC36
:10184000704700BF0C28004080B485B000AF6FF037
:101850007303FB6000237B600DE00C4B1B68BB60D7
:10186000BB6803F00203002B02D00023FB6006E0FC
:101870007B6801337B607B68B3F5803FEDD3FB6809
:1018800018461437BD4680BC704700BF0C28004086
:1018900080B584B000AF78606FF00F03FB60FFF796
:1018A0005DFE00224FF48851124800F0C7FB124B36
:1018B0001B6823F48073BB600F4ABB681360FFF79B
:1018C0009FFFF860FB68002B0CD10C4A7B6813600B
:1018D0000B4B00221A604FF488520021054800F09B
:1018E000ADFB00E000BFFFF749FEFB68184610376C
:1018F000BD4680BD082800400C2800401C28004040
:101900004428004080B584B000AF78606FF00F03CA
:10191000FB60FFF723FE00224FF40851124800F04D
:101920008DFB124B1B6823F40073BB600F4ABB682E
:101930001360FFF789FFF860FB68002B0CD10C4A9D
:101940007B6813600B4B00221A604FF40852002191
:10195000054800F073FB00E000BFFFF70FFEFB68D7
:1019600018461037BD4680BD082800400C280040AE
:10197000202800404828004080B582B002AF094BC3
:101980001B78002B0AD100230093074B0122002172
:10199000012000F00BFD034B01221A7000BFBD4671
:1019A00080BD00BFC80200200917000880B584B0C0
:1019B00000AF786039607B681B68FB60FB6803F0F0
:1019C0007F03BB60B868FFF770FE02463B681A6091
:1019D000FB681B0A03F07F03BB60B868FFF765FE76
:1019E00002463B685A60FB681B0C03F03F03BB6078
:1019F000B868FFF75AFE02463B689A60FB681B0E08
:101A000003F03F03BB60B868FFF74FFE02463B6838
:101A1000DA60002318461037BD4680BD80B483B01D
:101A200000AF0A4B1B687B607B68094A934203D076
:101A30007B68084A934201D1012300E00023DBB216
:101A400018460C37BD4680BC704700BF5028004088
:101A5000EDFECEFACEFA0DF080B582B000AFFFF702
:101A6000DDFF0346FB71FB79002B3AD10120FFF724
:101A7000BFFC4FF480724FF44071224800F0DEFA50
:101A80004FF4004200211F4800F0D8FAFFF766FD2E
:101A9000FFF7AEFD0346002B07D0FFF76FFD0020D8
:101AA000FFF7A6FC4FF0FF3327E0174B1B683B60A6
:101AB0003B6823F4E00323F040033B60124A3B6899
:101AC0001360124B124A1A60FFF7C2FDFFF762FD66
:101AD000104B114A1A60FFF751FD0020FFF788FCF8
:101AE00007E00120FFF784FCFFF7F4FD0020FFF77B
:101AF0007FFC0A4B01221A70002318460837BD46A6
:101B000080BD00BF9010024008280040102800400F
:101B1000FF007F0050280040EDFECEFAC9020020F1
:101B2000B0B588B000AF78603960584B1B68FB6176
:101B3000574B1B68BB61574B1B687B61544B1B6841
:101B40003B613A69BB699A4207D1504B1B683B61C4
:101B50003A69FB699A4202D0E7E700BFE5E700BFB8
:101B6000BB6903F07F033B613869FFF79EFD0246C6
:101B70007B681A60BB691B0A03F07F033B6138690D
:101B8000FFF793FD02467B685A60BB691B0C03F0AC
:101B90003F033B613869FFF788FD02467B689A6026
:101BA000FB6903F03F033B613869FFF77EFD0246A6
:101BB0007B68DA60FB691B0A03F01F033B6138692D
:101BC000FFF773FD03465A1E7B681A61FB691B0C05
:101BD000DBB23B613869FFF768FD034603F164023D
:101BE0007B685A61FB695B0B03F007033B613A6951
:101BF000294BA3FB0213D11A49080B4499080B4641
:101C0000DB005B1AD11A0A467B689A617B68DC6844
:101C10007B681D697B685B6903F26C73184604F08E
:101C2000FFFF0346DBB21946284604F0DDFF0346FA
:101C3000E2187B68DA617B6800221A623B68002B3D
:101C40001ED0164B1B68C3F30E03FB607B699BB26F
:101C50007B61FA687B69D31A114A02FB03F2FB68C5
:101C60000133B2FBF3F213469B0013445B00BB60ED
:101C7000BB684FF47A7202FB03F31A463B681A60A2
:101C8000002318462037BD46B0BD00BF04280040E1
:101C900000280040282800402549922410280040B0
:101CA000A086010080B582B000AF7860002178681E
:101CB000FFF736FF034618460837BD4680BD80B59E
:101CC00082B000AF7860396039687868FFF728FF24
:101CD000034618460837BD4680BD90B587B000AFB3
:101CE00078607B681B681846FFF7C6FC04467B6873
:101CF0005B681846FFF7C0FC03461B021C437B6869
:101D00009B681846FFF7B8FC03461B0423433B615E
:101D10003B6903F07F3323F0FE433B617B68DB6864
:101D20001846FFF7A9FC04467B681B690133184677
:101D3000FFF7A2FC03461B0244EA03027B689B698F
:101D4000002B04D07B689B695B039BB201E04FF4DE
:101D5000604343EA02047B685B69643B1846FFF713
:101D60008BFC03461B042343FB60FB6823F07F438B
:101D700023F0C003FB60FFF7F1FBFFF739FC78614C
:101D80007B69002B0AD1104A3B6913600F4AFB683C
:101D90001360FFF75DFCFFF7FDFB78610C4B1B68E0
:101DA0000C4A934208D00120FFF722FB084B094A56
:101DB0001A600020FFF71CFBFFF7E0FB7B69184669
:101DC0001C37BD4690BD00BF0028004004280040DD
:101DD00050280040CEFA0DF080B400AF054B1B68D0
:101DE000054A93420CBF01230023DBB21846BD46CF
:101DF00080BC704750280040CEFA0DF080B58EB000
:101E000000AF78607B6807F10C021146184604F0B9
:101E1000F9FF07F10C031846FFF75FFF034618466A
:101E20003837BD4680BD90B587B000AF78606FF0A1
:101E300015037B61FFF7A0FD7B685B681846FFF721
:101E40001BFC04467B689B681846FFF715FC03469D
:101E50001B021C437B68DB681846FFF70DFC03463A
:101E60001B041C437B681B691846FFF705FC0346EF
:101E70001B0623433B617B681B68002B02D0012BB0
:101E800018D032E01B4BFB607B681A6BFB681A6052
:101E90007B685A6BFB685A603869FFF7F9FC786118
:101EA0007B69002B1EDAFB6800221A60FB680022A7
:101EB0005A6017E0104BFB607B681A6BFB681A6076
:101EC0007B685A6BFB685A603869FFF71BFD7861C5
:101ED0007B69002B08DAFB6800221A60FB6800228D
:101EE0005A6001E000BF00E000BF7B6918461C3764
:101EF000BD4690BDB8020020C002002080B584B06D
:101F000000AF0346FB716FF01503FB60FB79002BFC
:101F100002D0012B28D04FE0FB792D4A002142F856
:101F20003310FB792A4ADB00134400225A60FFF782
:101F300015FB00224FF48851264800F07FF8FFF788
:101F40005FFCF860FB68002B38DB234B4FF0FF325F
:101F50001A6000224FF48071204800F06FF8FFF7FC
:101F60000DFB0023FB6027E0FB79194A002142F8B2
:101F70003310FB79164ADB00134400225A60FFF746
:101F8000EDFA00224FF40851124800F057F8FFF71D
:101F90005BFCF860FB68002B12DB114B4FF0FF324B
:101FA0001A6000224FF400710C4800F047F8FFF768
:101FB000E5FA0023FB6000BFFB6805E000BF00E01E
:101FC00000BFFFF7DBFAFB6818461037BD4680BD3F
:101FD000B8020020082800401C2800400C280040BF
:101FE0002028004080B584B000AF78606FF0150302
:101FF000FB607B681B68002B02D0012B0AD013E02A
:102000000C4BBB607B685B681946B868FFF7CEFC79
:10201000F86009E0084BBB607B685B681946B868EC
:10202000FFF7C4FCF86000BFFB6818461037BD46D8
:1020300080BD00BF1C2800402028004080B489B02B
:1020400000AFF860B9607A60EFF3108372B6BB82BC
:10205000BB8AFB83FB681B68BB61BB68DB43BA6957
:102060001340BB61BA697B681343BB61FB68BA6903
:102070001A60FB8BFB82FB8A13F0010F00D162B662
:1020800000BF00BF2437BD4680BC704780B485B018
:1020900000AF78600EE00023FB6002E0FB680133D4
:1020A000FB60FB6842F232129342F7DD7B68A3F5D6
:1020B0007A737B607B68B3F57A7FECD80DE0002300
:1020C000FB6002E0FB680133FB60FB6840F25132C9
:1020D0009342F7DD7B68643B7B607B68642BEED8C2
:1020E0000BE00023FB6002E0FB680133FB60FB6850
:1020F000542BF9DD7B680A3B7B607B680A2BF0D8A8
:102100000BE00023FB6002E0FB680133FB60FB682F
:10211000072BF9DD7B68013B7B607B68002BF0D1EE
:1021200000BF00BF1437BD4680BC704780B487B085
:1021300000AFF860B9607A603B60FB680F2B15DD7B
:10214000FB68103B7B617B695B1140339B001A4647
:102150003B68134403F1E022BB681A607B6903F01B
:102160001F0301229A407B681A6027E0BB68164A69
:102170001A60FB68042B04D17B684FF480321A602C
:102180001CE0FB68052B04D17B684FF400321A6019
:1021900014E0FB68062B04D17B684FF480221A60A0
:1021A0000CE0FB680F2B06D1BB68084A1A607B68FD
:1021B00001221A6002E04FF0FF3300E000231846CE
:1021C0001C37BD4680BC704724ED00E010E000E005
:1021D00080B584B000AF00237B600CE07B685B11AE
:1021E00060339B0003F1E0231A464FF0FF33136086
:1021F0007B6820337B607B68542BEFDD1D4B1E4AD0
:102200001A601E4B4FF080321A601D4B4FF0803227
:102210001A601C4B4FF080321A601B4B1B68013355
:10222000DB00BB60194BFB6006E0FB684FF08032BF
:102230001A60FB680433FB60BB685A1EBA60002B4F
:10224000F3D1134B00221A60002212490B2000F038
:10225000D5FB00221049032000F0D0FBF0233B60A7
:102260003B6883F3118800BF62B600BF00BF103720
:10227000BD4680BD08ED00E00000000818ED00E05C
:102280001CED00E020ED00E004E000E000E400E0F0
:102290001813002025250008A124000880B586B069
:1022A00000AF786007F10C0207F110018023786815
:1022B000FFF73CFF0346002B13D17B680F2B04DD97
:1022C0003B691A46FB6813600BE03B691B687B6146
:1022D000FB68DB437A6913407B613B691A467B6983
:1022E000136000BF1837BD4680BD80B586B000AF13
:1022F000786007F10C0207F1100100237868FFF7FE
:1023000015FF0346002B12D17B680F2B04DD3B69C0
:102310001A46FB6813600AE03B691B687B61FB6837
:102320007A6913437B613B691A467B69136000BF7E
:102330001837BD4680BD80B483B000AF786000BF61
:102340000C37BD4680BC704780B400AF044B1B689F
:102350000133034A136000BFBD4680BC704700BF15
:10236000CC02002080B586B000AFF860B9607A601A
:1023700000237B610A4B1B68002B07D0084B1B68AE
:10238000084A1268B968F86898477861064B4FF4B4
:1023900080221A607B6918461837BD4680BD00BF91
:1023A000D0020020D40200201404014080B582B085
:1023B00000AF3B600346FB710B46BB7113467B715C
:1023C000304A3B681360304A3B6913603B68002B1E
:1023D00008D000222D49392000F010FB3920FFF7EA
:1023E00084FF02E03920FFF759FFFB79002B01D071
:1023F000002101E04FF48021FB79002B02D04FF443
:10240000802300E000231A462148FFF717FEBB791E
:10241000002B01D0002101E04FF48021BB79002B7B
:1024200002D04FF4802300E000231A461948FFF73A
:1024300005FE7B79002B01D0002101E04FF48021C3
:102440007B79002B02D04FF4802300E000231A4652
:102450001148FFF7F3FD3B68002B01D0002101E09C
:102460004FF480213B68002B02D04FF4802300E022
:1024700000231A460948FFF7E1FD002318460837F4
:10248000BD4680BDD0020020D40200206523000894
:10249000080401400C040140040401400004014010
:1024A00080B588B000AFF860B9607A60BB68FB6146
:1024B000FB6944331B68023BBB61BB69134A93420F
:1024C00011D3BB69124A93420DD2BB691B88FB82B0
:1024D000FB8AB3F55F4F06D17A68B968F86800F0F7
:1024E00021F803460EE0EFF3108372B6BB82094B6E
:1024F0001B68094A0949002004F04EFB8621084860
:1025000003F085FE18462037BD4680BD0000000858
:10251000BC9202082CED00E0A40E02086C0E02082A
:102520008C0E020880B586B000AFF860B9607A60A2
:10253000BB687B617B69DB6A3B613B69022B19D01D
:102540003B69022B25D83B69002B03D03B69012B4B
:1025500009D01EE07B6930331B684C22796918462C
:1025600004F0DBFA16E07B6930331B681A460C4B2B
:102570001A600FE07B6930331B684C22796918467A
:1025800004F0CBFA7B6934331B681A46044B1A609B
:1025900000E000BF002318461837BD4680BD00BFCD
:1025A00018130020EFF305801EF0040F02D0EFF3A4
:1025B00009818D466A4602F12002EFF310832DE96E
:1025C000FC4F69466C46DFF838D000F01BF8214616
:1025D000884209D000F12C01B1E8F00F016821E92F
:1025E000F00FB0E8FC4F01E0B1E8FC4F1EF0040F23
:1025F0000CBF81F3088881F3098883F31088704742
:10260000D80A002080B584B000AF7860396001201E
:1026100000F02EF80D4B1B68FB600C4A3B68136002
:102620007868FFF788FE3968786800F023FA074B6E
:102630001B683B60054AFB681360012000F02AF824
:102640003B6818461037BD4680BD00BF18130020F8
:1026500080B500AF00F002F800BF80BD80B500AFCC
:102660000248FDF7E3FD00BF80BD00BF1308050071
:1026700080B582B000AF78607B68012B03D1012167
:102680000348FDF742FF00BF0837BD4680BD00BFCD
:102690001308050080B582B000AF78607B68012B1D
:1026A00003D100210348FDF730FF00BF0837BD46C6
:1026B00080BD00BF1308050080B586B000AF0023C1
:1026C0003B61A54B01221A70A44B00221A60A34B58
:1026D00000225A60A24B00221A60A14B00225A60CD
:1026E000A04B00221A609F4B00225A609E4B002292
:1026F0001A609D4B00225A609C4B00221A609B4B33
:1027000000225A609A4B00221A60994B00225A60AC
:10271000984B00221A60974B00225A60964B002279
:102720001A8000237B610EE0944A7B69002142F805
:102730003310924A7B69DB0013444FF6FF729A8094
:102740007B6901337B617B690F2BEDDD8A4B1B8835
:102750001BB29BB203F00F03FB603B69D42202FB68
:1027600003F3874A1A448549FB6841F83320824BBA
:102770001B8819B2814AFB68DB0013440A469A8021
:102780003B69D42202FB03F37D4A1344D422002187
:10279000184604F079F9784B1B8818B2784A3B69DF
:1027A000D42101FB03F313440C3302461A80744A0C
:1027B0003B69D42101FB03F313441A3303221A703B
:1027C0006F4A3B69D42101FB03F3134410336D4A74
:1027D0001A606B4A3B69D42101FB03F313441433A1
:1027E000684A1A60664A3B69D42101FB03F313442B
:1027F0001C3306221A80644A3B69644942F833104C
:10280000614A3B69DB00134400225A603B69DB00EC
:102810005D4A1A445A493B69D42000FB03F30B4438
:10282000D0331A604D4BBB603B69D42202FB03F3EB
:10283000534A1344B968184603F0A1FE3B69D422F9
:1028400002FB03F34E4A1A4451493B6941F82320E5
:102850003B69002B08D13B69D42202FB03F3484AB1
:102860001344184605F09EFA3B4B02221A703A4672
:102870003B1D1146184604F067FF7B683A68114615
:10288000184604F001FC344B03221A700BF035FAA1
:10289000404B002B01D000F031FD3F4B002B01D00D
:1028A00002F09AFB3D4B002B01D002F03FFD3C4B68
:1028B000002B01D01CF042F93A4B002B01D001F063
:1028C0002EFF394B002B01D00FF002FD374B002BB0
:1028D00001D001F0FDFB05F049FA1F4B04221A70EC
:1028E0000DF050FE3B69D42202FB03F3244A1A4444
:1028F00023493B69D42000FB03F30B441C331B88A2
:10290000DBB21946104600F0E1FB3B69D42202FB22
:1029100003F31B4A1344184600F06EFC3B69D422B3
:1029200002FB03F3164A1344184600F00BFC144A4A
:102930003B69D42101FB03F3134408331B680122D4
:102940001A7003F059FC044B05221A7000F04EF87F
:1029500004F020FFFCE700BFD61300202C1300205A
:10296000CC13002024130020441300203413002033
:102970001C1300203C130020D41300204C13002013
:10298000D80A0020B9260008AC0B0020FC0E020873
:10299000D8130020FD320008D94F00082D5300083D
:1029A0003DEB01081F470008D1220108D140000873
:1029B00080B584B002AF00237B607B680093064B38
:1029C0004FF400626421054800F0D0F8386000BF81
:1029D0000837BD4680BD00BF85840008080F020887
:1029E00080B500AFFFF7E4FF00BF80BD80B500AF4A
:1029F000FFF7F6FF0023184680BD00BF80B588B002
:102A000000AFF860B9607A606FF01503FB61FB6896
:102A1000642B26D8FB68BB61EFF3108372B6BB82D0
:102A2000BB8AFB82BB68002B06D1F868FFF736FC37
:102A30000E4BBB6000237B600D49BB69BA6841F84F
:102A400033200B4ABB69DB0013447A685A60FB8A67
:102A50007B827B8A13F0010F00D162B600BF002396
:102A6000FB61FB6918462037BD4680BDDD2A0008A2
:102A7000DC13002080B586B000AF78603960134B5E
:102A80007B6100233B617B68FB607B68642B10D813
:102A90000F4AFB6852F83330002B0AD00C4AFB680F
:102AA00052F833307B610A4AFB68DB0013445B68F1
:102AB0003B617B693A69396878689847054B1B68C0
:102AC000054A136000BF1837BD4680BDDD2A0008E7
:102AD000DC1300202C130020D813002080B586B012
:102AE00000AFF860B9607A60EFF3108372B6FB82D2
:102AF0004121014803F08BFB100F020880B58CB018
:102B000004AFF8607A603B600B46FB72D42004F09F
:102B1000E9FAF861FB69002B02D16FF00B0321E0A9
:102B2000FB7A9AB2FB699A833B68FA6A0292BA6AA4
:102B30000192009300237A68F968F86900F064F85C
:102B4000B861BB69002B04DAF86904F0ADFABB691F
:102B500008E0FB699B89FB82FB69184600F052FA8A
:102B6000B7F9163018462037BD4680BD80B586B00F
:102B700002AFF860B9607A603B60BB6901933B6863
:102B800000937B68BA680021F868FFF7B7FF034637
:102B900018461037BD4680BD80B588B002AFF860DA
:102BA000B9607A603B603B6A00933B687A68B968B9
:102BB000F868FFF7DBFF78617B69002B08DA03F028
:102BC00032FB02467B695B4213604FF0FF337B614F
:102BD0007B6918461837BD4680BD80B586B002AF08
:102BE000F860B9607A603B60BB6901933B68009311
:102BF0007B68BA680221F868FFF780FF0346184631
:102C00001037BD4680BD000080B588B002AFF860C7
:102C1000B9607A603B60FB689B8BDBB203F0030317
:102C2000FB74FB689B8BDBB21946F86800F04EFA28
:102C300078617B69002B01DA7B6951E0F86800F06C
:102C400045FB78617B69002B33DB3B68002B07D0A9
:102C5000FB683A6A3968184605F092FA786106E02E
:102C6000FB68FA7C396A184605F019F878617B69C7
:102C7000002B20DBFB7C00937B6A1B4A7968F86899
:102C800000F088F978617B69002B16DBBA6AB968B5
:102C9000F86800F0A7F9F86800F054FA78617B69E9
:102CA000002B01D17B691BE01049F86803F08AFC16
:102CB00004E000BF02E000BF00E000BF3B68002B63
:102CC00009D1FB681B6C002B05D0FB68FA7C114610
:102CD000184605F009F9FB68184600F06EFA7B69A2
:102CE00018461837BD4680BD393000083C13002017
:102CF00080B582B000AF78600849786803F062FC64
:102D00007B689B8BDBB203F00303DBB21946786868
:102D100000F0A4FB00BF0837BD4680BD3C13002077
:102D200080B586B000AF786000F0CEFB00233B6139
:102D300033E01F4B1B881BB29BB201339BB21AB20C
:102D40001B4B114619801346FB82B7F91630002B36
:102D500004DC174B01221A800123FB82FB8A03F05B
:102D60000F03FB60134AFB6852F83330002B11D17C
:102D70001049FB687A6841F833200E4AFB68DB0093
:102D80001344FA8A9A807B68FA8A9A8100F0BAFB27
:102D9000002309E03B6901333B613B690F2BC8DD30
:102DA00000F0B0FB4FF0FF3318461837BD4680BD2A
:102DB000D41300204C13002080B586B000AFF8601B
:102DC000B9607A603B60F868FFF7AAFF78617B69B9
:102DD000002B3BD1BB68DAB2FB681A76BB68DAB26B
:102DE000FB685A76FB687A681A613A68FB685A6130
:102DF00097F8203003F0030387F82030FB689B8BA3
:102E000023F003039AB2FB689A83FB689A8B97F8C6
:102E100020309BB213439AB2FB689A83FB684C3311
:102E20001A460021032000F0F3FBFB6800229A768B
:102E3000F86804F0B7FF00F047FB0749F86803F0B3
:102E40009EFBFB6804229A7600F05CFB7B691846C7
:102E50001837BD4680BD00BF3C13002080B58AB046
:102E600000AF786039604A4B7B61786903F03FFEC0
:102E7000034601333B620023FB613B68002B26D0F5
:102E80001EE0FB699B003A6813441B68184603F078
:102E90002EFE034601333A6A13443B627B68DB6BC8
:102EA0003A6A9A4202D36FF05A036CE0FB6901332D
:102EB000FB61FB69B3F5807F02DD6FF0060362E022
:102EC000FB699B003A6813441B68002BD9D1FB694E
:102ED00002339B003B6178683A693B6A13441946A8
:102EE00005F0E0F8F860FB68002B02D16FF00B03EF
:102EF00049E0FA683B6913447B62FB687A6A1A60AE
:102F0000786903F0F4FD03460133BB607969786AA0
:102F100003F0D4FDBB687A6A13447B620023BB6173
:102F200021E0BB6901339B00FA6813447A6A1A6096
:102F3000BB699B003A6813441B68184603F0D7FD31
:102F400003460133BB60BB699B003A6813441B68AE
:102F50001946786A03F0B2FDBB687A6A13447B6253
:102F6000BB690133BB61BA69FB699A42D9DBFB6972
:102F700001339B00FA68134400221A607B68FA68E8
:102F8000C3F8D020002318462837BD4680BD00BFB7
:102F9000280F020880B586B002AFF860B9607A6089
:102FA0003B603B7E00933B687A68B968F868FFF73E
:102FB00003FF034618461037BD4680BD80B586B076
:102FC00002AFF860B9607A603B60012300933B6810
:102FD0007A68B968F868FFF7EFFE034618461037BD
:102FE000BD4680BD80B584B000AFF860B9607A603E
:102FF0007968F868FFF732FF034618461037BD4678
:1030000080BD00BF80B584B000AF7860EFF310835F
:1030100072B67B817B89FB81786805F073F8FB8948
:10302000BB81BB8913F0010F00D162B600BF00BFA6
:103030001037BD4680BD000080B584B000AF134B93
:103040001B68BB6001237B600123FB6009E0FB6818
:103050000133FB60FB68B3F5807F02DD012000F0E7
:103060001EF8BB68D3F8D020FB689B0013441B6894
:10307000002BECD1BB685869BB68D3F8D0301A4636
:10308000F96803F0F9FA786800F009F82C130020C9
:1030900080B582B000AF7860786804F04FFE80B5EC
:1030A00084B000AF7860084B1B68FB607B68DBB2C4
:1030B0007B60F86800F080F900227968F86800F019
:1030C000DAFE7868FFF7E4FF2C13002080B584B0A7
:1030D00000AF78600B46FB704FF4027004F002F80A
:1030E000F860FB68002B02D16FF00B0326E07B68D1
:1030F000FA689A60F86800F009FFB860BB68002BB6
:1031000007DAF86803F0D0FF7B6800229A60BB689A
:1031100014E0FB680C3301220021184603F0BCFACE
:10312000FB68043300220021184603F0B5FAFB685F
:1031300004330021184603F01BFB00231846103708
:10314000BD4680BD80B485B000AF78607B689B6869
:10315000FB60FB6801225A70002318461437BD46F5
:1031600080BC704780B582B000AF7860786800F0AE
:10317000D2FB786800F0FAF87B68383318460AF01A
:103180000FFE786803F090F8786800F003FF786825
:1031900000F0D6F87B689B78002B07D07B681B7803
:1031A00043F00803DAB27B681A7002E0786803F033
:1031B0007BFF00BF0837BD4680BD80B584B000AF3F
:1031C00078607B689B68FB60FB68002B10D0FB6815
:1031D0005B78012B06D9FB685B78013BDAB2FB68B0
:1031E0005A7002E0F868FFF7BDFF7B6800229A6022
:1031F00000BF1037BD4680BD80B584B000AF786099
:103200007B689B68FB60FB68383318460AF0BAFDA0
:10321000032110480BF0C4FCB860BB68002B0CD134
:10322000012100200BF0F7F9022100200BF0F3F947
:10323000786800F0C6FE034607E0BB68002B02DD9D
:10324000B8680BF0CFF96FF0160318461037BD467B
:1032500080BD00BF340F020880B586B000AF786033
:10326000194B1B683B613B699B683C33FB607B6887
:103270009B683C33BB6000237B611DE07B691B01C5
:10328000FA6813449B68002B13D07B691B01FA6812
:1032900013441B6803F48063002B0AD17B691B0174
:1032A000FA68D0187B691B01BA68134419460AF002
:1032B00094FD7B6901337B617B69072BDEDD00BFF9
:1032C00000BF1837BD4680BD2C13002080B584B0E8
:1032D00000AF78607B689B68FB60FB6838331846FA
:1032E0000AF050FD7868FFF7B7FF786800F069FED4
:1032F000034618461037BD4680BD00BF80B582B07A
:1033000000AF00237B600DE00B4A7B680B4942F85D
:103310003310094A7B68DB00134400225A607B6843
:1033200001337B607B68642BEEDDFEF751FF00BF4D
:103330000837BD4680BD00BFDC130020DD2A000831
:1033400080B582B000AF786006E07B68D3F80032C9
:10335000796818460CF08CFD7B68D3F80032002B9E
:10336000F3D100BF00BF0837BD4680BD80B584B033
:1033700000AF786013E07B681B69FB60FB681A682C
:103380007B681A61FB680C33184600F00FF9FB6884
:103390000A33184600F00AF9F86803F085FE7B68E6
:1033A0001B69002BE7D17B680C33184600F0FEF850
:1033B00000BF1037BD4680BD80B586B000AF7860D5
:1033C00000F082F823E0EFF3108372B6BB81BB8973
:1033D000FB827B681B6F3B613B691A687B681A67DD
:1033E0003B6900221A60FB8AFB81FB8913F0010F05
:1033F00000D162B600BF3B691B7A43F00203DAB228
:103400003B691A723B690433184600F092FE7B68F0
:103410001B6F002BD7D100F075F800BF1837BD46E1
:1034200080BD000080B485B000AF0346FB80FB8800
:1034300003F00F03FB60084AFB68002142F83310D9
:10344000054AFB68DB0013444FF6FF729A8000BF09
:103450001437BD4680BC70474C13002080B584B043
:1034600000AF78600B46FB700023FB607B68002B8D
:1034700022D0144B002B05D07B68B3F90C301846D2
:103480001BF092FB7B68B3F90C30002B05D07B68F6
:10349000B3F90C301846FFF7C5FF7B681B6C002B97
:1034A00004D0FB781946786804F01EFD7868FFF7B1
:1034B00084FE786803F0F8FDFB6818461037BD46B7
:1034C00080BD00BFA9EB010880B582B000AF0C4BF6
:1034D0001B687B607B68002B0DD004F097FC0346D3
:1034E000002B08D17B68B3F91E309BB201339BB22D
:1034F0001AB27B68DA83002318460837BD4680BDC0
:103500002C13002080B584B000AF264B1B68FB60F5
:10351000FB68002B40D004F079FC0346002B3BD124
:10352000EFF3108372B63B813B897B81FB68B3F973
:103530001E30002B08DDFB68B3F91E309BB2013B47
:103540009BB21AB2FB68DA83FB68B3F91E30002B1A
:103550001ADCFB680022DA83134B1B68002B01D0B6
:1035600004F088FCFB689B8B03F06003202B0BD1DD
:10357000FB685B6A002B07D10A4B1B68FA689A420A
:1035800002D0FB6814225A627B89FB80FB8813F00F
:10359000010F00D162B600BF002318461037BD46A8
:1035A00080BD00BF2C130020CC13002080B483B05A
:1035B00000AF78607B68002B09D07B681B881BB24A
:1035C000002B02DB7B6801221A80002301E06FF0F0
:1035D000150318460C37BD4680BC704780B584B0D3
:1035E00000AF78607868FFF7E1FFF860FB68002BB8
:1035F00008DA02F018FE0246FB685B4213604FF0E7
:10360000FF33FB60FB6818461037BD4680BD0000E5
:1036100080B58AB000AFF860B9607A60284B1B684B
:103620003B6200237B62FFF74FFF3B6ADB6CFB6171
:103630007B68002B02D07B68FA691A60BB68002B9C
:1036400036D0EFF3108372B63B833B8B7B83FB68F2
:10365000032B1AD0FB68032B1CDCFB68012B03D067
:10366000FB68022B08D015E03B6ADA6CBB681B686C
:103670001A433B6ADA6411E03B6ADA6CBB681B6888
:10368000DB431A403B6ADA6408E0BB681A683B6AAD
:10369000DA6403E06FF015037B6200BF7B8BFB8273
:1036A000FB8A13F0010F00D162B600BF00F028F8CA
:1036B000FFF728FF7B6A18462837BD4680BD00BF4C
:1036C0002C13002080B586B000AFF860B9607A6036
:1036D0007A68B968F868FFF79BFF78617B69002B0F
:1036E00008DA02F0A0FD02467B695B4213604FF0EE
:1036F000FF337B617B6918461837BD4680BD00BF2C
:1037000090B585B000AF1F4B1B68FB60FFF7DCFE78
:10371000FB68DB6CDC43F86801F054F90346234096
:103720003B603B68002B03D1FFF7ECFE002324E055
:103730003B46184600F0AAF8B860BB68B3F1FF3FFB
:1037400015D03B46B968184603F07EF8B968F868AA
:1037500000F01AF878607B68002B08D07B6804338F
:103760001946F86800F0F0F9786800F04FF83B6807
:10377000002BDDD1FFF7C6FE012318461437BD46E6
:1037800090BD00BF2C13002080B588B000AF7860DA
:1037900039607B689B687B61EFF3108372B63B8274
:1037A0003B8A7B820023BB617B695B6AFB6104E02F
:1037B000FB69BB61FB691B68FB61FB69002B05D0E2
:1037C000FB691B791A463B689342F1D1FB69002BD8
:1037D0000ED0BB69002B06D07B6924331946B8692B
:1037E00002F0A5FE04E07B692433184602F081FE56
:1037F0007B8AFB81FB8913F0010F00D162B600BF09
:10380000FB6918462037BD4680BD000080B586B0F4
:1038100000AF78607B681B7B002B11D1EFF3108326
:1038200072B67B827B8AFB821649786802F0D2FDF1
:10383000FB8ABB82BB8A13F0010F00D162B61DE088
:103840007B681B7B022B11D1EFF3108372B6FB81D7
:10385000FB89FB820C49786802F0BCFDFB8A3B8245
:103860003B8A13F0010F00D162B607E07B681B7B37
:10387000012B03D1786803F017FCFFE700BF18376E
:10388000BD4680BD241700201C17002080B584B0E1
:1038900000AF78600023FB600BE0F968786803F004
:1038A00008F80346002B01D0FB6807E0FB680133F2
:1038B000FB60FB681F2BF0DD4FF0FF33184610371D
:1038C000BD4680BD80B584B000AF786002E0F86886
:1038D00001F00CF97B685433184602F00AFEF860D8
:1038E000FB68002BF3D102E0F86801F0FFF87B6879
:1038F0005C33184602F0FDFDF860FB68002BF3D145
:103900007B684FF0FF32DA647B6800221A6500BFE3
:103910001037BD4680BD80B584B000AF786002E04E
:10392000F86801F025F87B681C33184602F0E1FDC9
:10393000F860FB68002BF3D102E0B868FFF766FF80
:103940007B682433184602F0D4FDB860BB68002BB6
:10395000F3D100BF00BF1037BD4680BD80B588B031
:1039600000AF786039600023FB61FFF7ADFD7B6835
:103970009A683B681B781946104601F053F8B86105
:10398000BB69002B30D0BB695B68002B2CD001F0E9
:103990006DF878617B69002B03D16FF00B03FB613D
:1039A00022E0BB695A687B695A60BB699A687B6987
:1039B0009A607B690C3308223968184603F0ADF829
:1039C000EFF3108372B6FB81FB897B827B685433F3
:1039D0001946786902F0FEFC7B8A3B823B8A13F031
:1039E000010F00D162B600BFFFF78CFDFB691846DE
:1039F0002037BD4680BD80B584B000AF04F006FA24
:103A00000346002B0BD0194802F073FDF860FB68E9
:103A1000002B26D1164802F06CFDF86021E0EFF390
:103A2000108372B6FB80FB887B81104802F061FD39
:103A3000F8607B893B813B8913F0010F00D162B6AE
:103A400000BFFB68002B0CD1FB68002B03D11020BA
:103A500003F038FBF860FB68002B02D0FB68012202
:103A60001A73FB6818461037BD4680BD2417002026
:103A70001C17002080B487B000AF78603960002345
:103A80007B61EFF3108372B63B823B8A7B827B685B
:103A90005B6A7B6102E07B691B687B617B69002B51
:103AA00005D07B691B791A463B689342F3D17B8A28
:103AB000FB81FB8913F0010F00D162B600BF7B6967
:103AC00018461C37BD4680BC704780B586B000AF35
:103AD000786039607B689B687B613B681B7819461E
:103AE0007869FFF7C7FF38613B69002B07D03B6956
:103AF000043308223968184603F00FF820E0FFF776
:103B00007AFF38613B69002B1AD03B6904330822E5
:103B10003968184603F001F8EFF3108372B67B8121
:103B20007B89FB817B6924331946386902F052FC9A
:103B3000FB89BB81BB8913F0010F00D162B600BFC6
:103B400000BF1837BD4680BD80B588B000AF786033
:103B500039600023FB613B681B78002B01D10023F7
:103B60008BE07B6803F14C023B681B7819461046DA
:103B700002F09FFEB861BB69012B38D1EFF31083CF
:103B800072B6BB82BB8AFB827B689B7E062B21D1EF
:103B90007B6803F150023B681B781946104602F01F
:103BA00088FE0346002B15D07B68643308223968F1
:103BB000184602F0B2FF7B6800221A65786804F0AC
:103BC000A1FAFB8A7B827B8A13F0010F00D162B6D7
:103BD00000BF34E0FB8A3B823B8A13F0010F00D127
:103BE00062B600BF39687868FFF76FFF27E0396871
:103BF0007868FFF7B3FEF861EFF3108372B6FB81CC
:103C0000FB89FB821F49786804F090F97B689B7EF2
:103C1000062B0CD17B68643308223968184602F001
:103C20007CFF7B6800221A65786804F06BFAFB8AD7
:103C3000BB81BB8913F0010F00D162B600BFBB6925
:103C4000002B13D17B689B7E052B03D10421786860
:103C500000F0D6FC7B689B7E072B03D07B689B7EA5
:103C6000082B03D10421786800F0EFF9BB69002B21
:103C700002DA6FF01503FB61FB6918462037BD4679
:103C800080BD00BFC13C000880B584B000AF0346D2
:103C90003960FB80B7F90630184600F063FAF86027
:103CA000FB68002B02D16FF0020304E03968F8686A
:103CB000FFF74AFF034618461037BD4680BD00BFD8
:103CC00080B58AB000AF7860EFF3108372B67B8264
:103CD0007B8AFB847B689B8B03F48073002B08D06A
:103CE000FB8C3B823B8A13F0010F00D162B600BF10
:103CF00072E07B685433184602F0FBFB38623B6A83
:103D0000002B08D1FB8CFB81FB8913F0010F00D144
:103D100062B600BF60E07B689B8B43F480739AB20D
:103D20007B689A837B685C331946386A02F052FBE1
:103D30007B68DB6CFB613B6A9A68FB691A433B6AF0
:103D40001B7B194601238B401343BB617B68BA6917
:103D5000DA64FB8C3B813B8913F0010F00D162B622
:103D600000BF3B6A5B683A6A127B10463A6A02F10E
:103D70000C0100229847EFF3108372B67B817B8998
:103D8000FB847B689B8B23F480739AB27B689A8355
:103D90007B68DB6CBA6953407B617B68DA6C7B695A
:103DA0001A407B69D943FB690B401A437B68DA648C
:103DB0007B685C331946386A02F063FBFB8CBB817D
:103DC000BB8913F0010F00D162B600BFFFF798FC6A
:103DD000386A00F08BFE77E700BF2837BD4680BD0C
:103DE00080B584B000AF786039607B689B68FB6009
:103DF000FB68002B23D07B689B8B03F00303012B14
:103E000008D0FB689B68002B04D0FB689B683A686D
:103E100012021A60FB685B78012B10D1FB6800224C
:103E20009A60FB680022DA7004E0FB6804331846ED
:103E300000F046FBFB689B881BB2002BF5DB00BF44
:103E40001037BD4680BD80B584B000AF78607B6818
:103E50009B68FB60FB68002B09D0FB685B78012B3B
:103E600005D17B689B68BC33184602F058FD00BF43
:103E70001037BD4680BD80B584B000AFF860B96032
:103E80001346FB71FB689B8B03F48063002B1AD1F4
:103E9000F86800F01CF8B968F868FFF7A1FFFB7933
:103EA000002B02D1F868FFF7CEFFF868FFF785F91D
:103EB000F868FFF707FDFB689B8B43F480639AB2B9
:103EC000FB689A8300E000BF1037BD4680BD80B517
:103ED00082B000AF7860786800F00AF8786800F087
:103EE00065FB786800F08DF800BF0837BD4680BDDF
:103EF00080B582B000AF78607B682833184600F048
:103F000057FF00BF0837BD4680BD000080B586B0B2
:103F100000AF78601E4B1B68BB6000237B610023F1
:103F2000FB60FFF7D1FABB689B68002B28D0BB6809
:103F30009B681B6B002B23D0BB689B68DB6A3B61D3
:103F400000237B613B69002B14D0386903F0BAF879
:103F500078617B69002B05D100233B616FF00B0377
:103F6000FB6007E0BB689B681B6B3A691946786980
:103F700002F0D3FD7B683A69DA627B687A691A637A
:103F8000FFF7C0FAFB6818461837BD4680BD00BF72
:103F90002C13002080B582B000AF78607B681B6B6B
:103FA000002B04D07B681B6B184603F07DF87B6800
:103FB0000022DA627B6800221A6300BF0837BD4620
:103FC00080BD80B582B000AF78607B689B68184682
:103FD00002F035F900237A68012100200BF09FFBE5
:103FE00000237A68062101200BF099FB00237A68F0
:103FF000062102200BF093FB002318460837BD462C
:1040000080BD80B483B000AF78607B689B7E072B57
:1040100009D17B68DB6EB3F9122092B2013A92B2F9
:1040200012B25A820CE07B689B7E082B08D17B6819
:10403000DB6EB3F9102092B2013A92B212B21A8238
:1040400000BF0C37BD4680BC704780B586B000AF5E
:1040500078603960EFF3108372B6FB81FB89FB82D5
:104060007B689B7E072B03D07B689B7E082B23D12C
:104070007B68DB6E3B617B680022DA667B689B7E37
:10408000072B09D13B69B3F912309BB2013B9BB2BC
:104090001AB23B695A8208E03B69B3F910309BB20F
:1040A000013B9BB21AB23B691A823B681AB27B6829
:1040B0001A84786804F026F8FB8ABB81BB8913F068
:1040C000010F00D162B600BF00BF1837BD4680BDEA
:1040D00080B400AF00BFBD4680BC704780B586B0DD
:1040E00000AFF860B9601346FB71FB79002B0DD06F
:1040F000BB68002B04D1F86800F068F8786112E022
:10410000B968F86800F0E6F878610CE0BB68002B4D
:1041100004D1F86800F0B0F8786104E0B968F86894
:1041200000F0E7F878617B695B4218461837BD46B6
:1041300080BD80B584B000AF78607B68002B0BD069
:10414000786800F0BDF9F860FB68002B02DAFB68C4
:104150005B4202E0002300E0162318461037BD46FC
:1041600080BD000080B487B000AF0346FB80002311
:104170007B61B7F90630002B20DBFB8803F00F03CF
:104180003B61EFF3108372B6BB81BB89FB810E4AA2
:104190003B69DB001344B3F90430B7F906209A42B7
:1041A00004D1094A3B6952F833307B61FB897B813A
:1041B0007B8913F0010F00D162B600BF7B691846FE
:1041C0001C37BD4680BC70474C13002080B586B0BC
:1041D00000AF7860274B1B683B616FF015037B6174
:1041E000EFF3108372B6BB81BB89FB817B68002B28
:1041F00032D07B681B881BB2002B0EDD7B681B88CE
:104200001BB29BB2013B9BB21AB27B681A803B691E
:1042100000229A6400237B611EE07B681B881BB22E
:104220009BB2013B9BB21AB27B681A803B697A68E9
:104230009A643B6900221A840521386903F0BEFCA8
:104240003B69B3F92030002B04D03B69B3F920302F
:104250005B4200E000237B61FB897B817B8913F05B
:10426000010F00D162B600BF7B6918461837BD4602
:1042700080BD00BF2C13002080B584B000AF7860F3
:104280007868FFF7A3FFF860FB6813F1040FF7D01D
:10429000FB6818461037BD4680BD80B584B000AFBE
:1042A00078607868FFF792FFF860FB68002B0BDA04
:1042B000FB685B42BB6000BF01F0B5FF0246BB6814
:1042C00013604FF0FF3300E0002318461037BD465F
:1042D00080BD00BF80B582B000AF786039603A68B9
:1042E0000021786800F024F8034618460837BD46D8
:1042F00080BD80B582B000AF786039603A68002137
:10430000786800F07FF8034618460837BD4680BD40
:1043100080B582B000AF786039603A680021786873
:1043200000F087F8034618460837BD4680BD0000F8
:10433000B0B58AB000AFF8600B467A60FB722E4BC6
:104340001B683B624FF0FF337B62EFF3108372B662
:10435000FB82FB8AFB83F86800F0EAFD78627B6AE7
:10436000002B3BD07B685B68002B04DB7B685B68C1
:10437000224A934203DD6FF015037B622FE007F1C1
:104380001002FB7A7968184600F08EFDB861BB69AF
:10439000002B06D13B69002B03DC6FF073037B62BB
:1043A0001DE0BB69002B03D0BB695B427B6216E05A
:1043B0003B6A03F128043D6900F0D8FB0346104A2C
:1043C0002946204600F024FCF868FFF7FFFE7862DB
:1043D0003B6A2833184600F0EBFC00E000BFFB8B83
:1043E000BB82BB8A13F0010F00D162B600BF7B6AAB
:1043F00018462837BD46B0BD2C130020FFC99A3B94
:104400007144000880B586B000AFF8600B467A6052
:10441000FB72FB7A7A681946F868FFF789FF7861C2
:104420007B6913F1040FF4D07B6918461837BD4639
:1044300080BD80B586B000AFF8600B467A60FB7235
:10444000FB7A7A681946F868FFF772FF78617B6932
:10445000002B08DA01F0E7FE02467B695B4213603D
:104460004FF0FF337B617B6918461837BD4680BD2E
:1044700080B586B000AF7860EFF3108372B6FB8131
:10448000FB89FB827B681BB21846FFF76BFE386125
:104490003B69002B07D03B699B7E052B03D1742120
:1044A000386900F0ADF8FB8ABB81BB8913F0010FBE
:1044B00000D162B600BF00BF1837BD4680BD000006
:1044C00080B586B000AF786000237B616FF0150384
:1044D0003B617B68002B47D0EFF3108372B6BB8142
:1044E000BB89FB817B681B881BB247F6FF72934236
:1044F0000AD1FB897B817B8913F0010F00D162B661
:1045000000BF6FF08A0330E07B681B881BB29BB250
:1045100001339BB21AB27B681A807B681B881BB27E
:10452000002B17DC134B1B687B6102E07B691B6867
:104530007B617B69002B04D07B699B6C7A689A4213
:10454000F4D17B69002B05D07B6900229A647869DD
:1045500003F0D8FD00233B61FB893B813B8913F0CD
:10456000010F00D162B600BF3B6918461837BD463F
:1045700080BD00BF2413002080B584B000AF7860F8
:104580007868FFF79DFFF860FB68002B08DA01F000
:104590004AFE0246FB685B4213604FF0FF33FB604C
:1045A000FB6818461037BD4680BD00BF80B487B099
:1045B00000AF7860EFF3108372B6FB81FB89FB825A
:1045C0007B689B7E052B0ED17B689B6C3B613B69B6
:1045D0001B881BB29BB201339BB21AB23B691A8093
:1045E0007B6800229A64FB8ABB81BB8913F0010FB0
:1045F00000D162B600BF00BF1C37BD4680BC70470B
:1046000080B586B000AF78603960EFF3108372B682
:10461000FB81FB89FB827B689B7E052B15D17B6828
:104620009B6C3B613B691B881BB29BB201339BB205
:104630001AB23B691A807B6800229A643B681AB2FE
:104640007B681A84786803F05DFDFB8ABB81BB89B7
:1046500013F0010F00D162B600BF00BF1837BD468E
:1046600080BD000080B586B000AF78600B467B80CF
:1046700013467B707A8813465B001344DB001846B0
:1046800002F020FDF860FB68002B16D0FB687B6110
:1046900000233B610DE07B697A781A757B6903F131
:1046A00018027A617968184601F094FE3B6901337B
:1046B0003B617B883A699A42EDDBFB681846183704
:1046C000BD4680BD80B586B000AF78600B467B806C
:1046D00013467B707B881B01184602F0F3FCF860E0
:1046E000FB68002B16D0FB687B6100233B610DE06B
:1046F0007B697A781A737B6903F110027A617968B1
:10470000184601F067FE3B6901333B617B883A69DB
:104710009A42EDDBFB6818461837BD4680BD80B570
:1047200000AF204B00221A601E4B00225A601E4B25
:1047300000221A601C4B00225A601C4B00221A6097
:104740001A4B00225A601A4B00221A60184B0022A2
:104750005A60184B00221A60164B00225A60002241
:1047600004211148FFF77EFF0346134A136002221B
:1047700008210E48FFF776FF0346104A1360002217
:1047800004210B48FFF79EFF03460D4A13600222E7
:1047900008210848FFF796FF03460A4A136000BF46
:1047A00080BD00BF041700200C1700201417002044
:1047B000241700201C170020B80B0020BC0B002081
:1047C000C00B0020C40B002080B582B000AF502089
:1047D00002F078FC03460F4A13600E4B1B68002B57
:1047E00013D00C4B1B687B6000233B600AE07B68A6
:1047F00003F114027A600849184601F0EBFD3B68AA
:1048000001333B603B68032BF1DD00BF0837BD4639
:1048100080BD00BFB40B00200417002080B582B01B
:1048200000AF094801F065FE78607B68002B05D178
:10483000FFF7CAFF044801F05CFE78607B68184609
:104840000837BD4680BD00BF0417002080B588B082
:1048500000AFF860B9607A60FB70354B1B68BB61D4
:10486000BB699B687B61FB681F2B02D96FF0150346
:104870005AE0F968786900F0D5F8F8617B68002B98
:1048800018D0FB69002B0CD0FB695A687B681A6052
:10489000FB699A687B685A60FB69DA687B689A6092
:1048A00008E07B6800221A607B6800225A607B68FF
:1048B00000229A60BB68002B01D1002334E0BB6862
:1048C0001B683B613B69002B0CD1FB69002B2AD094
:1048D0007B691C331946F86901F0D3FDF86900F0D3
:1048E00047F820E0FB69002B12D1FFF797FFF86132
:1048F000FB69002B02D16FF00B0315E0FB68DAB205
:10490000FB691A747B691C331946F86901F062FD72
:10491000FB693A695A60BB685A68FB699A60BB6870
:104920009A68FB69DA60002318462037BD4680BDCF
:104930002C13002080B586B000AFF860B9607A60B3
:1049400000237A68B968F868FFF780FF78617B69AF
:10495000002B08DA01F067FC02467B695B421360BA
:104960004FF0FF3300E0002318461837BD4680BDE6
:1049700080B582B000AF78600349786801F02AFD05
:1049800000BF0837BD4680BD0417002080B584B045
:1049900000AF78600A4B1B68BB604FF0FF33FB60D1
:1049A0007B68002B07D0B86800F00CF802467B68E3
:1049B0001A600023FB60FB6818461037BD4680BDB7
:1049C0002C13002080B588B000AF78607B689B68AE
:1049D000BB610023FB60EFF3108372B6BB82BB8A1E
:1049E000FB82BB695B6AFB610BE0FB691B791A46C2
:1049F00007F10C031146184601F0F2FEFB691B6833
:104A0000FB61FB69002BF0D1FB8A7B827B8A13F070
:104A1000010F00D162B600BFFB6818462037BD46C3
:104A200080BD00BF80B584B000AF786039600023DE
:104A3000FB607B68002B13D0FEF746FD7B68DB69CB
:104A4000FB6002E0FB681B68FB60FB68002B05D085
:104A5000FB681B7C1A463B689342F3D1FEF752FD7C
:104A6000FB6818461037BD4680BD000080B584B095
:104A700000AF03F0CBF90346002B0BD0194801F02F
:104A800038FDF860FB68002B26D1174801F031FD96
:104A9000F86021E0EFF3108372B6FB80FB887B8126
:104AA000104801F026FDF8607B893B813B8913F0BB
:104AB000010F00D162B600BFFB68002B0CD1FB6870
:104AC000002B03D1182002F0FDFAF860FB68002BE0
:104AD00002D0FB6801221A75FB6818461037BD46E4
:104AE00080BD00BF0C1700201417002080B586B0D1
:104AF00000AF78607B681B7D002B11D1EFF3108332
:104B000072B67B827B8AFB821649786801F062FC70
:104B1000FB8ABB82BB8A13F0010F00D162B61DE095
:104B20007B681B7D022B11D1EFF3108372B6FB81E2
:104B3000FB89FB820C49786801F04CFCFB8A3B82C4
:104B40003B8A13F0010F00D162B607E07B681B7D42
:104B5000012B03D1786802F0A7FAFFE700BF1837EE
:104B6000BD4680BD0C1700201417002080B483B010
:104B700000AF0B4B1B687B607B68002B0AD07B6807
:104B80009B7E032B03D17B68B3F90C3003E06FF0FD
:104B9000020300E0002318460C37BD4680BC704776
:104BA0002C13002080B582B000AF184B1B689B68A7
:104BB000002B27DC1DE0154801F09BFC7860134BAF
:104BC0001B68002B08D0114B1B6899687B689A689A
:104BD0000E4B1B680A449A607B681B7B23F0010321
:104BE000DAB27B681A737B685B687A681269104670
:104BF0009847064B1B68002B04D0044B1B689B682E
:104C0000002BD8DD00BF0837BD4680BD2C17002023
:104C100080B58AB000AFF860B9607A603B60FB682D
:104C2000002B02D0BB68002B02DA6FF01503A7E05F
:104C3000EFF3108372B67B827B8A7B83FB681B7BDE
:104C400003F00103002B02D0F86800F0B1F8FB6814
:104C50007A685A60FB683A681A61BB68002B02DC0C
:104C60000123BB6008E0BB680133BB60BB68002B5D
:104C700002DCBB68013BBB60434B1B68002B04D1CB
:104C80004149F86801F0A6FB67E00023FB613E4B59
:104C90001B687B627B6A3B6204E07B6A3B627B6AE7
:104CA0001B687B627B6A9B68FA691344FB61FB6942
:104CB000002B0EDA7B6A1B68002BEED109E07B6AC1
:104CC0003B627B6A1B687B627B6A9B68FA69134460
:104CD000FB61FA69BB689A4203DC7B6A1B68002BA4
:104CE000EDD1BA68FB699A421CDA7B6A9B68FA6963
:104CF000D31ABA68D31ABB607B6A9A68BB68D21AA7
:104D00007B6A9A60204B1B687A6A9A4204D11E49DA
:104D1000F86801F07EFB20E01B4AF968386A01F070
:104D200090FB1AE0BA68FB69D31ABB607B6A1B6808
:104D3000002B04D11449F86801F04CFB0DE07B6AAC
:104D40001B687B617B699A68BB68D21A7B699A6031
:104D50000D4AF968786A01F074FBFB68BA689A60DA
:104D6000FB681B7B43F00103DAB2FB681A737B8B91
:104D70003B823B8A13F0010F00D162B600BF0023D3
:104D800018462837BD4680BD2C17002080B500AFDF
:104D9000064B1B68002B06D0044B1B689A68013A2F
:104DA0009A60FFF7FFFE00BF80BD00BF2C170020F8
:104DB00080B588B000AF78606FF015037B61EFF3CA
:104DC000108372B63B823B8A7B827B68002B3BD090
:104DD0007B681B7B03F00103002B35D00023BB61F4
:104DE000204B1B68FB6104E0FB69BB61FB691B682E
:104DF000FB61FB69002B03D0FA697B689A42F3D10F
:104E0000FB691B68002B08D0FB691B689968FB696C
:104E10009A68FB691B680A449A60BB69002B04D03E
:104E20001049B86901F083FB02E00E4801F061FB14
:104E30007B6800221A607B681B7B23F00103DAB2D7
:104E40007B681A7300237B617B8AFB81FB8913F0EB
:104E5000010F00D162B600BF7B6918462037BD46FE
:104E600080BD00BF2C17002080B483B000AF7860F5
:104E700039607B681A683B681B689A4202D24FF01F
:104E8000FF330CE07B681A683B681B689A4201D9C3
:104E9000012304E07B685A683B685B68D31A1846B4
:104EA0000C37BD4680BC704780B58AB000AF034662
:104EB000B9607A60FB7307F11C02FB7B1146184650
:104EC00000F098F878627B6A002B01D0162329E065
:104ED00007F11C031946B868FFF7C6FF0346002B0D
:104EE00005DA7B684FF0FF321A6000231AE0BB68D6
:104EF0005A683B6AD31ABB61BB681A68FB69D31A4C
:104F00007B61BB69002B06DABA69084B1344BB61AD
:104F10007B69013B7B6107F114037968184600F057
:104F2000D3F8034618462837BD4680BD00CA9A3BD1
:104F300080B487B000AF7860194B1B683B617B6819
:104F4000002B24D0EFF3108372B6BB81BB89FB81A9
:104F50007B681B881BB2002B0EDD7B681B881BB295
:104F60009BB2013B9BB21AB27B681A803B6900225C
:104F70009A6400237B6102E06FF00A037B61FB8986
:104F80007B817B8913F0010F00D162B602E06FF0E4
:104F900015037B617B6918461C37BD4680BC704792
:104FA0002C13002080B584B000AF78607868FFF7DC
:104FB000BFFFF860FB68002B08DA01F034F9024605
:104FC000FB685B4213604FF0FF33FB60FB681846E1
:104FD0001037BD4680BD00BF80B400AF044B002237
:104FE0001A60034B00225A6000BFBD4680BC704768
:104FF0002C17002080B588B000AF03463960FB71E4
:105000000023FB61FB79002B40D107F10803184610
:1050100000F09EF8F861FB69002B3AD1EFF31083A2
:1050200072B63B823B8A7B83BA68224B1B6813446F
:10503000BB60FB681A461F4B5B681344FB607B8BAD
:105040007B827B8A13F0010F00D162B600BFFB6840
:10505000194A934213DDFB68184A82FB03121217A8
:10506000DB17D31A7B61BA687B691344BB60FB68AA
:1050700019467B69124A02FB03F3CB1AFB60BA683C
:105080003B681A60FA683B685A6002E06FF01503EB
:10509000FB61FB69002B08DA01F0C5F80246FB69E9
:1050A0005B4213604FF0FF33FB61FB69184620370A
:1050B000BD4680BD34170020FFC99A3BA12FB844DC
:1050C00000CA9A3B000000002DE9B04384B000AF55
:1050D000786039607B681B681A464FF000031A49F4
:1050E00001FB03F0002101FB02F101441648A2FB81
:1050F000002319440B467968496808464FEAE07175
:10510000141843EB0105C7E90245D7E902230CA1B6
:10511000D1E9000112EB000843EB01090B4A4FF003
:105120000003404649460BF033FA02460B463B6803
:105130001A60002318461037BD46BDE8B08300BF93
:105140007F9698000000000000CA9A3B8096980065
:105150002DE9B04F8AB000AFF8604A4B1B68984603
:105160004FF0000942464B464FF000004FF000015F
:10517000990041EA9271900002460B4612EB080238
:1051800043EB0903911839605B417B60D7E9002349
:10519000C7E90823D7E908014FF47A724FF00003FA
:1051A0000BF046FA02460B46C7E90623D7E906018B
:1051B00002460B464FF000084FF000094FEA431932
:1051C00049EAD2694FEA421842464B46121A63EB4B
:1051D00001034FF000084FF000094FEA830949EA44
:1051E00092794FEA820842464B46121841EB03037C
:1051F0004FF000004FF00001D90041EA5271D00099
:1052000002460B4610461946D7E90823141A63EBE9
:10521000010522462B464FF000004FF000015901D6
:1052200041EAD261500102460B46121B63EB0503B3
:105230004FF000004FF00001590241EAD2515002F4
:1052400002460B46121945EB03034FF000004FF0E6
:105250000001990141EA92619001801A61EB03011A
:1052600010EB040A41EB050BC7E904ABBA69FB6814
:105270001A603A69FB685A60002318462837BD4611
:10528000BDE8B08FC80B002080B590B000AF78604B
:105290000023FB6007F10C0207F1100311461846CA
:1052A000FCF70DFDF863FB6B002B0ADB07F1100325
:1052B000184601F0E3FC02467B681A60FA687B68D6
:1052C0005A60FB6B18464037BD4680BD80B582B042
:1052D00000AF1448FFF7D8FF3B461846FFF738FFEA
:1052E000104B1A683B68D31A0E4A13600D4B5A686C
:1052F0007B68D31A0B4A53600AE00A4B5A680A4B80
:105300001344084A5360074B1B68013B054A13606E
:10531000044B5B68002BF0DB00BF00BF0837BD46C5
:1053200080BD00BF3417002000CA9A3B80B500AF93
:1053300002F043FAFCF790FBFFF7C8FF00BF80BD07
:1053400080B582B000AFEFF3108372B67B807B88AC
:10535000FB80FFF7BBFFFB88BB80BB8813F0010F0E
:1053600000D162B600BF00BF0837BD4680BD80B522
:105370008EB000AF78607B68002B02D107F1080384
:105380007B60EFF3108372B67B857B8D7B8607F1A4
:1053900020031846FFF778FFF862FB6A002B06DA55
:1053A0007B6800221A607B6800225A6095E007F152
:1053B00018031846FFF7CCFEBA694E4B1B6813441E
:1053C0003B61FA694B4B5B6813447B617B694A4ADA
:1053D000934212DD7B69494A82FB03121217DB17E5
:1053E000D31A7B633A697B6B13443B617A697B6BAD
:1053F000434901FB03F313447B613A693B6A9A42D8
:1054000007D83A693B6A9A420AD17A697B6A9A421A
:1054100006DB7B6800221A607B6800225A605CE031
:105420003A6A3B69D21A7B681A607A6A7B69D21A37
:105430007B685A607B685B68002B0BDA7B685B6873
:10544000DB432E4A82FB03121217DB17D31ADB430E
:105450007B6310E07B685B68274A934209DD7B68C9
:105460005B68264A82FB03121217DB17D31A7B6391
:1054700001E000237B637B6B002B0ED07B681A68F6
:105480007B6B1A447B681A607B685A687B6B1C498B
:1054900001FB03F31A447B685A607B681B684FF476
:1054A0007A7202FB03F30533164AA2FB0323DA08E0
:1054B000154B1B681344144A13607B685A68134BDE
:1054C0001344134A82FB03129215DB17D31A1A46B0
:1054D0000D4B1B6813440C4A13607B8E3B853B8D40
:1054E00013F0010F00D162B600BF00BF3837BD46D0
:1054F00080BD00BF34170020FFC99A3BA12FB844DC
:10550000003665C4CDCCCCCCC80B0020404B4C0041
:105510006BCA5F6B80B400AF044B1B680133034A56
:10552000136000BFBD4680BC704700BFC80B0020A1
:1055300080B582B000AF78600B46FB70FB78002B23
:1055400004D07868FEF742FE034603E07868FEF771
:1055500093FE034618460837BD4680BD80B588B027
:1055600000AF78600B46FB700023FB6139E07A687E
:10557000FB690A339B0013445B68BB61BB69002B6A
:105580002CD0BB695A79BB691979FB780B40DBB227
:105590001343DAB2BB695A71BB695B79002B1DD02A
:1055A000EFF3108372B6BB82BB8AFB82BB69DB68F8
:1055B00007F10C021146184601F0A5F8FB68002B14
:1055C00004DCBB69DB681846FEF77AFFFB8A7B8246
:1055D0007B8A13F0010F00D162B600BFFB69013373
:1055E000FB61FB69012BC2DD00BF00BF2037BD4658
:1055F00080BD80B588B000AFF860B9601346FB711C
:10560000FB68DB891BB20133FB61FB68B3F9123025
:105610001A46FB69934201DB0023FB61FB681B8A8E
:105620001BB21A46FB6993420FD0FB685B69FA68AC
:10563000D28912B21344BA68D2B21A70FB691AB294
:10564000FB68DA810023BB613AE0FB79002B34D0A0
:10565000EFF3108372B6BB82BB8AFB82FB681B8AA6
:105660001BB21A46FB69934202D00023BB6115E0CE
:10567000FB6801225A70FB685B6A5B6A0121F8686B
:105680009847FB68063301211846FFF751FFB861C0
:10569000FB685B6A5B6A0021F8689847FB8A7B823B
:1056A0007B8A13F0010F00D162B600BFBB69002BEB
:1056B000B4DA6FF00303BB6102E06FF00A03BB6171
:1056C000BB6918462037BD4680BD80B582B000AFAB
:1056D0007860396000BF7B685B6A9B6A786898472E
:1056E0000346002BF7D07B685B6A1B6A39687868D1
:1056F000984700BF0837BD4680BD80B586B000AF73
:10570000F860B9607A607B687B6116E0BB685A1C00
:10571000BA601B783B61FB68DB78002B06D03B69E5
:105720000A2B03D10D21F868FFF7CFFF3969F8681C
:10573000FFF7CBFF7B68013B7B607B68002BE5D1EB
:105740007B6918461837BD4680BD80B588B000AF6C
:10575000786039607B680C3301211846FFF7E8FE5A
:10576000F861FB69002B55DBEFF3108372B6FB8108
:10577000FB897B830023FB6115E07B6801225A7063
:105780007B685B6A5B6A0121786898477B680633AF
:1057900001211846FFF7CCFEF8617B685B6A5B6A03
:1057A000002178689847FB69002B07DB7B68DB8961
:1057B0001AB27B681B8A1BB29A42DED17B8BBB81FB
:1057C000BB8913F0010F00D162B600BF144B1B68F8
:1057D0007B61FB69002B18DB0FE04FF47A700CF053
:1057E0007BFA0F4B1A687B69D31A3B613A693B68B5
:1057F0009A4202D36FF073030DE07B685B6ADB6A49
:10580000786898470346002BE7D07B680C3318462E
:10581000FEF756FEFB6918462037BD4680BD00BF27
:10582000C80B002080B588B000AF78607B689B68AB
:10583000BB61BB691B697B617B690433012118462D
:10584000FFF776FEF861FB69002B01DAFB6957E090
:105850007B691B780133FB74FB7C002B03D16FF059
:105860001703FB6146E0FB7C012B40D1EFF3108373
:1058700072B6FB81FB893B827B69DB78002B11D1FF
:105880007B695B6A1B6878699847F861FB69002B44
:1058900008DA3B8ABB81BB8913F0010F00D162B6E5
:1058A00000BF27E07B695B6A9B6878699847F8616D
:1058B000FB69002B0DDA7B695B6A5B687869984746
:1058C0003B8A7B817B8913F0010F00D162B600BF58
:1058D00010E07B695B6A9B690121786998473B8A84
:1058E0003B813B8913F0010F00D162B600BF7B6999
:1058F000FA7C1A707B6904331846FEF7E1FDFB69F8
:1059000018462037BD4680BD80B586B000AF7860B0
:105910007B689B687B617B691B693B613B690433E6
:1059200000211846FFF704FE3B691B78012B0CD9B8
:105930003B691B78013BDAB23B691A703B6904335F
:105940001846FEF7BDFD002338E03B6900221A70BF
:105950003B695B6A9B690021386998477B681B68D3
:1059600003F04003002B04D14FF4C8713869FFF7EE
:10597000ECFEEFF3108372B6BB81BB89FB813B6900
:105980005B6ADB68386998473B69DB78002B04D198
:105990003B695B6A5B6838699847FB897B817B89D7
:1059A00013F0010F00D162B600BF386900F050FB60
:1059B0003B6904331846FEF783FD00231846183769
:1059C000BD4680BD80B58CB000AFF860B9607A602C
:1059D000FB689B687B627B6A1B693B623B6A18338E
:1059E000FB610023FB62FB6901211846FFF7A0FD64
:1059F000B861BB69002B74DABB6986E0FB699B88E0
:105A00007B85FB695B881BB2B7F92A209A421FD0BD
:105A1000FB699A68B7F92A3013441B787B757B8D34
:105A200001339BB27B85FB69B3F90630B7F92A20B5
:105A30009A4201DB00237B85FB697A8D9A80BB68E3
:105A40005A1CBA607A7D1A70FB6A0133FB6248E027
:105A5000FB6A002B4ADCFB681B6803F04003002B49
:105A600003D06FF00A03FB6243E03B6A5B6A9B6909
:105A70000021386A9847FB695B881AB2FB699B88EA
:105A80001BB29A4227D1EFF3108372B63B823B8A56
:105A9000FB823B6A5B6A9B690121386A98473B6AD3
:105AA00001229A703B6A083301211846FFF740FD36
:105AB000B861FB8A7B827B8A13F0010F00D162B64A
:105AC00000BFBB69002B0CDAFB6A002B10D16FF012
:105AD0000303FB620CE03B6A5B6A9B690121386A45
